{
  "contractName": "EventTickets",
  "abi": [
    {
      "constant": true,
      "inputs": [],
      "name": "TICKET_PRICE",
      "outputs": [
        {
          "name": "",
          "type": "uint256"
        }
      ],
      "payable": false,
      "stateMutability": "view",
      "type": "function"
    },
    {
      "constant": true,
      "inputs": [],
      "name": "owner",
      "outputs": [
        {
          "name": "",
          "type": "address"
        }
      ],
      "payable": false,
      "stateMutability": "view",
      "type": "function"
    },
    {
      "constant": true,
      "inputs": [],
      "name": "myEvent",
      "outputs": [
        {
          "name": "description",
          "type": "string"
        },
        {
          "name": "url",
          "type": "string"
        },
        {
          "name": "totalTickets",
          "type": "uint256"
        },
        {
          "name": "sales",
          "type": "uint256"
        },
        {
          "name": "isOpen",
          "type": "bool"
        }
      ],
      "payable": false,
      "stateMutability": "view",
      "type": "function"
    },
    {
      "inputs": [
        {
          "name": "_description",
          "type": "string"
        },
        {
          "name": "_url",
          "type": "string"
        },
        {
          "name": "_totalTickets",
          "type": "uint256"
        }
      ],
      "payable": false,
      "stateMutability": "nonpayable",
      "type": "constructor"
    },
    {
      "anonymous": false,
      "inputs": [
        {
          "indexed": false,
          "name": "buyer",
          "type": "address"
        },
        {
          "indexed": false,
          "name": "amount",
          "type": "uint256"
        }
      ],
      "name": "LogBuyTickets",
      "type": "event"
    },
    {
      "anonymous": false,
      "inputs": [
        {
          "indexed": false,
          "name": "buyer",
          "type": "address"
        },
        {
          "indexed": false,
          "name": "amountRefunded",
          "type": "uint256"
        }
      ],
      "name": "LogGetRefund",
      "type": "event"
    },
    {
      "anonymous": false,
      "inputs": [
        {
          "indexed": false,
          "name": "owner",
          "type": "address"
        },
        {
          "indexed": false,
          "name": "profit",
          "type": "uint256"
        }
      ],
      "name": "LogEndSale",
      "type": "event"
    },
    {
      "constant": true,
      "inputs": [],
      "name": "readEvent",
      "outputs": [
        {
          "name": "description",
          "type": "string"
        },
        {
          "name": "website",
          "type": "string"
        },
        {
          "name": "totalTickets",
          "type": "uint256"
        },
        {
          "name": "sales",
          "type": "uint256"
        },
        {
          "name": "isOpen",
          "type": "bool"
        }
      ],
      "payable": false,
      "stateMutability": "view",
      "type": "function"
    },
    {
      "constant": true,
      "inputs": [
        {
          "name": "_buyer",
          "type": "address"
        }
      ],
      "name": "getBuyerTicketCount",
      "outputs": [
        {
          "name": "",
          "type": "uint256"
        }
      ],
      "payable": false,
      "stateMutability": "view",
      "type": "function"
    },
    {
      "constant": false,
      "inputs": [
        {
          "name": "_ticketAmount",
          "type": "uint256"
        }
      ],
      "name": "buyTickets",
      "outputs": [],
      "payable": true,
      "stateMutability": "payable",
      "type": "function"
    },
    {
      "constant": false,
      "inputs": [],
      "name": "getRefund",
      "outputs": [],
      "payable": false,
      "stateMutability": "nonpayable",
      "type": "function"
    },
    {
      "constant": false,
      "inputs": [],
      "name": "endSale",
      "outputs": [],
      "payable": false,
      "stateMutability": "nonpayable",
      "type": "function"
    }
  ],
  "bytecode": "0x60806040523480156200001157600080fd5b5060405162000ef738038062000ef7833981018060405260608110156200003757600080fd5b8101908080516401000000008111156200005057600080fd5b828101905060208101848111156200006757600080fd5b81518560018202830111640100000000821117156200008557600080fd5b50509291906020018051640100000000811115620000a257600080fd5b82810190506020810184811115620000b957600080fd5b8151856001820283011164010000000082111715620000d757600080fd5b505092919060200180519060200190929190505050336000806101000a81548173ffffffffffffffffffffffffffffffffffffffff021916908373ffffffffffffffffffffffffffffffffffffffff1602179055508260016000019080519060200190620001479291906200019e565b5081600180019080519060200190620001629291906200019e565b5080600160020181905550600060016003018190555060018060050160006101000a81548160ff0219169083151502179055505050506200024d565b828054600181600116156101000203166002900490600052602060002090601f016020900481019282601f10620001e157805160ff191683800117855562000212565b8280016001018555821562000212579182015b8281111562000211578251825591602001919060010190620001f4565b5b50905062000221919062000225565b5090565b6200024a91905b80821115620002465760008160009055506001016200022c565b5090565b90565b610c9a806200025d6000396000f3fe60806040526004361061007b5760003560e01c80638da5cb5b1161004e5780638da5cb5b14610205578063b2d5ae441461025c578063e7a8df5b14610273578063edfb9167146103885761007b565b806305aea97c146100805780631a95f15f146101955780632f366637146101c0578063380d831b146101ee575b600080fd5b34801561008c57600080fd5b506100956103ed565b60405180806020018060200186815260200185815260200184151515158152602001838103835288818151815260200191508051906020019080838360005b838110156100ef5780820151818401526020810190506100d4565b50505050905090810190601f16801561011c5780820380516001836020036101000a031916815260200191505b50838103825287818151815260200191508051906020019080838360005b8381101561015557808201518184015260208101905061013a565b50505050905090810190601f1680156101825780820380516001836020036101000a031916815260200191505b5097505050505050505060405180910390f35b3480156101a157600080fd5b506101aa610560565b6040518082815260200191505060405180910390f35b6101ec600480360360208110156101d657600080fd5b8101908080359060200190929190505050610565565b005b3480156101fa57600080fd5b506102036106dc565b005b34801561021157600080fd5b5061021a610840565b604051808273ffffffffffffffffffffffffffffffffffffffff1673ffffffffffffffffffffffffffffffffffffffff16815260200191505060405180910390f35b34801561026857600080fd5b50610271610865565b005b34801561027f57600080fd5b50610288610ac1565b60405180806020018060200186815260200185815260200184151515158152602001838103835288818151815260200191508051906020019080838360005b838110156102e25780820151818401526020810190506102c7565b50505050905090810190601f16801561030f5780820380516001836020036101000a031916815260200191505b50838103825287818151815260200191508051906020019080838360005b8381101561034857808201518184015260208101905061032d565b50505050905090810190601f1680156103755780820380516001836020036101000a031916815260200191505b5097505050505050505060405180910390f35b34801561039457600080fd5b506103d7600480360360208110156103ab57600080fd5b81019080803573ffffffffffffffffffffffffffffffffffffffff169060200190929190505050610c22565b6040518082815260200191505060405180910390f35b606080600080600060016000018054600181600116156101000203166002900480601f01602080910402602001604051908101604052809291908181526020018280546001816001161561010002031660029004801561048e5780601f106104635761010080835404028352916020019161048e565b820191906000526020600020905b81548152906001019060200180831161047157829003601f168201915b50505050509450600180018054600181600116156101000203166002900480601f01602080910402602001604051908101604052809291908181526020018280546001816001161561010002031660029004801561052d5780601f106105025761010080835404028352916020019161052d565b820191906000526020600020905b81548152906001019060200180831161051057829003601f168201915b5050505050935060016002015492506001600301549150600160050160009054906101000a900460ff1690509091929394565b606481565b600160050160009054906101000a900460ff1661058157600080fd5b80600160020154101561059357600080fd5b6000606482029050803410156105a857600080fd5b600081340390508260016002016000828254039250508190555082600160040160003373ffffffffffffffffffffffffffffffffffffffff1673ffffffffffffffffffffffffffffffffffffffff16815260200190815260200160002060008282540192505081905550826001600301600082825401925050819055503373ffffffffffffffffffffffffffffffffffffffff166108fc829081150290604051600060405180830381858888f1935050505015801561066b573d6000803e3d6000fd5b507f72240c1be87ee789414e12fc30844d39a55d1eaf3b8741489fe381ad2b6cdd473384604051808373ffffffffffffffffffffffffffffffffffffffff1673ffffffffffffffffffffffffffffffffffffffff1681526020018281526020019250505060405180910390a1505050565b6000809054906101000a900473ffffffffffffffffffffffffffffffffffffffff1673ffffffffffffffffffffffffffffffffffffffff163373ffffffffffffffffffffffffffffffffffffffff161461073557600080fd5b600160050160009054906101000a900460ff1661075157600080fd5b6000600160050160006101000a81548160ff02191690831515021790555060003073ffffffffffffffffffffffffffffffffffffffff163190503373ffffffffffffffffffffffffffffffffffffffff166108fc829081150290604051600060405180830381858888f193505050501580156107d1573d6000803e3d6000fd5b507f21e7b2f8578199ba3904a63b7cd799784c8cadde57dde563a7de95ef792e256c3382604051808373ffffffffffffffffffffffffffffffffffffffff1673ffffffffffffffffffffffffffffffffffffffff1681526020018281526020019250505060405180910390a150565b6000809054906101000a900473ffffffffffffffffffffffffffffffffffffffff1681565b600160050160009054906101000a900460ff1661088157600080fd5b6000600160040160003373ffffffffffffffffffffffffffffffffffffffff1673ffffffffffffffffffffffffffffffffffffffff16815260200190815260200160002054116108d057600080fd5b60006064600160040160003373ffffffffffffffffffffffffffffffffffffffff1673ffffffffffffffffffffffffffffffffffffffff16815260200190815260200160002054029050600160040160003373ffffffffffffffffffffffffffffffffffffffff1673ffffffffffffffffffffffffffffffffffffffff16815260200190815260200160002054600160020160008282540192505081905550600160040160003373ffffffffffffffffffffffffffffffffffffffff1673ffffffffffffffffffffffffffffffffffffffff168152602001908152602001600020546001600301600082825403925050819055506000600160040160003373ffffffffffffffffffffffffffffffffffffffff1673ffffffffffffffffffffffffffffffffffffffff168152602001908152602001600020819055503373ffffffffffffffffffffffffffffffffffffffff166108fc829081150290604051600060405180830381858888f19350505050158015610a52573d6000803e3d6000fd5b507f492e1d962a477f77890c7cfdb563d7ddc58fee6505741794fa5700ada3c160413382604051808373ffffffffffffffffffffffffffffffffffffffff1673ffffffffffffffffffffffffffffffffffffffff1681526020018281526020019250505060405180910390a150565b6001806000018054600181600116156101000203166002900480601f016020809104026020016040519081016040528092919081815260200182805460018160011615610100020316600290048015610b5b5780601f10610b3057610100808354040283529160200191610b5b565b820191906000526020600020905b815481529060010190602001808311610b3e57829003601f168201915b505050505090806001018054600181600116156101000203166002900480601f016020809104026020016040519081016040528092919081815260200182805460018160011615610100020316600290048015610bf95780601f10610bce57610100808354040283529160200191610bf9565b820191906000526020600020905b815481529060010190602001808311610bdc57829003601f168201915b5050505050908060020154908060030154908060050160009054906101000a900460ff16905085565b6000600160040160008373ffffffffffffffffffffffffffffffffffffffff1673ffffffffffffffffffffffffffffffffffffffff16815260200190815260200160002054905091905056fea165627a7a72305820673b73ebb8e3d87218a0fcef52bd264260da535d0badff05ac18d986789960b60029",
  "source": "pragma solidity ^0.5.0;\n\ncontract EventTickets {\n\n    address payable public owner;\n    uint constant public TICKET_PRICE = 100 wei;\n\n    struct Event {\n        string description;\n        string url;\n        uint totalTickets;\n        uint sales;\n        mapping (address => uint) buyers;\n        bool isOpen;\n    }\n\n    Event public myEvent;\n\n    event LogBuyTickets(address buyer, uint amount);\n    event LogGetRefund(address buyer, uint amountRefunded);\n    event LogEndSale(address owner, uint profit);\n\n    modifier onlyOwner {\n        require(msg.sender == owner);\n        _;\n    }\n\n    constructor (string memory _description, string memory _url, uint _totalTickets) public {\n        owner = msg.sender;\n        myEvent.description = _description;\n        myEvent.url = _url;\n        myEvent.totalTickets = _totalTickets;\n        myEvent.sales = 0;\n        myEvent.isOpen = true;\n    }\n\n    function readEvent() public view returns(string memory description, string memory website, uint totalTickets, uint sales, bool isOpen) {\n        description = myEvent.description;\n        website = myEvent.url;\n        totalTickets = myEvent.totalTickets;\n        sales = myEvent.sales;\n        isOpen = myEvent.isOpen;\n    }\n\n    function getBuyerTicketCount(address _buyer) public view returns(uint) {\n        return myEvent.buyers[_buyer];\n    }\n\n    function buyTickets(uint _ticketAmount) public payable {\n        require(myEvent.isOpen);\n        require(myEvent.totalTickets >= _ticketAmount);\n        uint totalPrice = _ticketAmount * TICKET_PRICE;\n        require(msg.value >= totalPrice);\n\n        uint change = msg.value - totalPrice;\n\n        myEvent.totalTickets -= _ticketAmount;\n        myEvent.buyers[msg.sender] += _ticketAmount;\n        myEvent.sales += _ticketAmount;\n\n        msg.sender.transfer(change);\n\n        emit LogBuyTickets(msg.sender, _ticketAmount);\n    }\n\n    function getRefund() public {\n        require(myEvent.isOpen);\n        require(myEvent.buyers[msg.sender] > 0);\n\n        uint amountToRefund = myEvent.buyers[msg.sender] * TICKET_PRICE;\n        myEvent.totalTickets += myEvent.buyers[msg.sender];\n        myEvent.sales -= myEvent.buyers[msg.sender];\n        myEvent.buyers[msg.sender] = 0;\n\n        msg.sender.transfer(amountToRefund);\n\n        emit LogGetRefund(msg.sender, amountToRefund);\n    }\n\n    function endSale() public onlyOwner {\n        require(myEvent.isOpen);\n        myEvent.isOpen = false;\n        uint balance = address(this).balance;\n        msg.sender.transfer(balance);\n        emit LogEndSale(msg.sender, balance);\n    }\n}\n",
  "sourcePath": "/Users/tomamajic/Desktop/Toma/Dev/ConsensysAcademy/7_module/EventTicketExercise_Graded/event-ticket-exercise-TomaMajic/contracts/EventTickets.sol",
  "compiler": {
    "name": "solc",
    "version": "0.5.8+commit.23d335f2.Emscripten.clang"
  },
  "schemaVersion": "3.0.16",
  "updatedAt": "2019-11-20T23:25:48.921Z",
  "devdoc": {
    "methods": {}
  },
  "userdoc": {
    "methods": {}
  }
}