{
  "contractName": "EventTickets",
  "abi": [
    {
      "constant": true,
      "inputs": [],
      "name": "owner",
      "outputs": [
        {
          "name": "",
          "type": "address"
        }
      ],
      "payable": false,
      "stateMutability": "view",
      "type": "function"
    },
    {
      "constant": true,
      "inputs": [],
      "name": "myEvent",
      "outputs": [
        {
          "name": "description",
          "type": "string"
        },
        {
          "name": "url",
          "type": "string"
        },
        {
          "name": "totalTickets",
          "type": "uint256"
        },
        {
          "name": "sales",
          "type": "uint256"
        },
        {
          "name": "isOpen",
          "type": "bool"
        }
      ],
      "payable": false,
      "stateMutability": "view",
      "type": "function"
    },
    {
      "inputs": [
        {
          "name": "_description",
          "type": "string"
        },
        {
          "name": "_url",
          "type": "string"
        },
        {
          "name": "_totalTickets",
          "type": "uint256"
        }
      ],
      "payable": false,
      "stateMutability": "nonpayable",
      "type": "constructor"
    },
    {
      "anonymous": false,
      "inputs": [
        {
          "indexed": false,
          "name": "buyer",
          "type": "address"
        },
        {
          "indexed": false,
          "name": "amount",
          "type": "uint256"
        }
      ],
      "name": "LogBuyTickets",
      "type": "event"
    },
    {
      "anonymous": false,
      "inputs": [
        {
          "indexed": false,
          "name": "buyer",
          "type": "address"
        },
        {
          "indexed": false,
          "name": "amountRefunded",
          "type": "uint256"
        }
      ],
      "name": "LogGetRefund",
      "type": "event"
    },
    {
      "anonymous": false,
      "inputs": [
        {
          "indexed": false,
          "name": "owner",
          "type": "address"
        },
        {
          "indexed": false,
          "name": "profit",
          "type": "uint256"
        }
      ],
      "name": "LogEndSale",
      "type": "event"
    },
    {
      "constant": true,
      "inputs": [],
      "name": "readEvent",
      "outputs": [
        {
          "name": "description",
          "type": "string"
        },
        {
          "name": "website",
          "type": "string"
        },
        {
          "name": "totalTickets",
          "type": "uint256"
        },
        {
          "name": "sales",
          "type": "uint256"
        },
        {
          "name": "isOpen",
          "type": "bool"
        }
      ],
      "payable": false,
      "stateMutability": "view",
      "type": "function"
    },
    {
      "constant": true,
      "inputs": [
        {
          "name": "_buyer",
          "type": "address"
        }
      ],
      "name": "getBuyerTicketCount",
      "outputs": [
        {
          "name": "",
          "type": "uint256"
        }
      ],
      "payable": false,
      "stateMutability": "view",
      "type": "function"
    },
    {
      "constant": false,
      "inputs": [
        {
          "name": "_ticketAmount",
          "type": "uint256"
        }
      ],
      "name": "buyTickets",
      "outputs": [],
      "payable": true,
      "stateMutability": "payable",
      "type": "function"
    },
    {
      "constant": false,
      "inputs": [],
      "name": "getRefund",
      "outputs": [],
      "payable": false,
      "stateMutability": "nonpayable",
      "type": "function"
    },
    {
      "constant": false,
      "inputs": [],
      "name": "endSale",
      "outputs": [],
      "payable": false,
      "stateMutability": "nonpayable",
      "type": "function"
    }
  ],
  "bytecode": "0x608060405260646001553480156200001657600080fd5b5060405162000e3438038062000e34833981018060405260608110156200003c57600080fd5b8101908080516401000000008111156200005557600080fd5b828101905060208101848111156200006c57600080fd5b81518560018202830111640100000000821117156200008a57600080fd5b50509291906020018051640100000000811115620000a757600080fd5b82810190506020810184811115620000be57600080fd5b8151856001820283011164010000000082111715620000dc57600080fd5b505092919060200180519060200190929190505050336000806101000a81548173ffffffffffffffffffffffffffffffffffffffff021916908373ffffffffffffffffffffffffffffffffffffffff16021790555082600260000190805190602001906200014c929190620001a4565b50816002600101908051906020019062000168929190620001a4565b5080600280018190555060006002600301819055506001600260050160006101000a81548160ff02191690831515021790555050505062000253565b828054600181600116156101000203166002900490600052602060002090601f016020900481019282601f10620001e757805160ff191683800117855562000218565b8280016001018555821562000218579182015b8281111562000217578251825591602001919060010190620001fa565b5b5090506200022791906200022b565b5090565b6200025091905b808211156200024c57600081600090555060010162000232565b5090565b90565b610bd180620002636000396000f3fe6080604052600436106100705760003560e01c80638da5cb5b1161004e5780638da5cb5b146101cf578063b2d5ae4414610226578063e7a8df5b1461023d578063edfb91671461035257610070565b806305aea97c146100755780632f3666371461018a578063380d831b146101b8575b600080fd5b34801561008157600080fd5b5061008a6103b7565b60405180806020018060200186815260200185815260200184151515158152602001838103835288818151815260200191508051906020019080838360005b838110156100e45780820151818401526020810190506100c9565b50505050905090810190601f1680156101115780820380516001836020036101000a031916815260200191505b50838103825287818151815260200191508051906020019080838360005b8381101561014a57808201518184015260208101905061012f565b50505050905090810190601f1680156101775780820380516001836020036101000a031916815260200191505b5097505050505050505060405180910390f35b6101b6600480360360208110156101a057600080fd5b810190808035906020019092919050505061052a565b005b3480156101c457600080fd5b506101cd6106a0565b005b3480156101db57600080fd5b506101e46107e8565b604051808273ffffffffffffffffffffffffffffffffffffffff1673ffffffffffffffffffffffffffffffffffffffff16815260200191505060405180910390f35b34801561023257600080fd5b5061023b61080d565b005b34801561024957600080fd5b506102526109f8565b60405180806020018060200186815260200185815260200184151515158152602001838103835288818151815260200191508051906020019080838360005b838110156102ac578082015181840152602081019050610291565b50505050905090810190601f1680156102d95780820380516001836020036101000a031916815260200191505b50838103825287818151815260200191508051906020019080838360005b838110156103125780820151818401526020810190506102f7565b50505050905090810190601f16801561033f5780820380516001836020036101000a031916815260200191505b5097505050505050505060405180910390f35b34801561035e57600080fd5b506103a16004803603602081101561037557600080fd5b81019080803573ffffffffffffffffffffffffffffffffffffffff169060200190929190505050610b59565b6040518082815260200191505060405180910390f35b606080600080600060026000018054600181600116156101000203166002900480601f0160208091040260200160405190810160405280929190818152602001828054600181600116156101000203166002900480156104585780601f1061042d57610100808354040283529160200191610458565b820191906000526020600020905b81548152906001019060200180831161043b57829003601f168201915b5050505050945060026001018054600181600116156101000203166002900480601f0160208091040260200160405190810160405280929190818152602001828054600181600116156101000203166002900480156104f85780601f106104cd576101008083540402835291602001916104f8565b820191906000526020600020905b8154815290600101906020018083116104db57829003601f168201915b50505050509350600280015492506002600301549150600260050160009054906101000a900460ff1690509091929394565b600260050160009054906101000a900460ff1661054657600080fd5b806002800154101561055757600080fd5b6000600154820290508034101561056d57600080fd5b6000813403905082600280016000828254039250508190555082600260040160003373ffffffffffffffffffffffffffffffffffffffff1673ffffffffffffffffffffffffffffffffffffffff16815260200190815260200160002060008282540192505081905550826002600301600082825401925050819055503373ffffffffffffffffffffffffffffffffffffffff166108fc829081150290604051600060405180830381858888f1935050505015801561062f573d6000803e3d6000fd5b507f72240c1be87ee789414e12fc30844d39a55d1eaf3b8741489fe381ad2b6cdd473384604051808373ffffffffffffffffffffffffffffffffffffffff1673ffffffffffffffffffffffffffffffffffffffff1681526020018281526020019250505060405180910390a1505050565b6000809054906101000a900473ffffffffffffffffffffffffffffffffffffffff1673ffffffffffffffffffffffffffffffffffffffff163373ffffffffffffffffffffffffffffffffffffffff16146106f957600080fd5b6000600260050160006101000a81548160ff02191690831515021790555060003073ffffffffffffffffffffffffffffffffffffffff163190503373ffffffffffffffffffffffffffffffffffffffff166108fc829081150290604051600060405180830381858888f19350505050158015610779573d6000803e3d6000fd5b507f21e7b2f8578199ba3904a63b7cd799784c8cadde57dde563a7de95ef792e256c3382604051808373ffffffffffffffffffffffffffffffffffffffff1673ffffffffffffffffffffffffffffffffffffffff1681526020018281526020019250505060405180910390a150565b6000809054906101000a900473ffffffffffffffffffffffffffffffffffffffff1681565b6000600260040160003373ffffffffffffffffffffffffffffffffffffffff1673ffffffffffffffffffffffffffffffffffffffff168152602001908152602001600020541161085c57600080fd5b600260040160003373ffffffffffffffffffffffffffffffffffffffff1673ffffffffffffffffffffffffffffffffffffffff1681526020019081526020016000205460028001600082825401925050819055506000600154600260040160003373ffffffffffffffffffffffffffffffffffffffff1673ffffffffffffffffffffffffffffffffffffffff168152602001908152602001600020540290506000600260040160003373ffffffffffffffffffffffffffffffffffffffff1673ffffffffffffffffffffffffffffffffffffffff168152602001908152602001600020819055503373ffffffffffffffffffffffffffffffffffffffff166108fc829081150290604051600060405180830381858888f19350505050158015610989573d6000803e3d6000fd5b507f492e1d962a477f77890c7cfdb563d7ddc58fee6505741794fa5700ada3c160413382604051808373ffffffffffffffffffffffffffffffffffffffff1673ffffffffffffffffffffffffffffffffffffffff1681526020018281526020019250505060405180910390a150565b6002806000018054600181600116156101000203166002900480601f016020809104026020016040519081016040528092919081815260200182805460018160011615610100020316600290048015610a925780601f10610a6757610100808354040283529160200191610a92565b820191906000526020600020905b815481529060010190602001808311610a7557829003601f168201915b505050505090806001018054600181600116156101000203166002900480601f016020809104026020016040519081016040528092919081815260200182805460018160011615610100020316600290048015610b305780601f10610b0557610100808354040283529160200191610b30565b820191906000526020600020905b815481529060010190602001808311610b1357829003601f168201915b5050505050908060020154908060030154908060050160009054906101000a900460ff16905085565b6000600260040160008373ffffffffffffffffffffffffffffffffffffffff1673ffffffffffffffffffffffffffffffffffffffff16815260200190815260200160002054905091905056fea165627a7a723058209b7103f20ce28d020e302949492b23726716eb0ad380db636a90beb0999cd60b0029",
  "source": "pragma solidity ^0.5.0;\n\ncontract EventTickets {\n\n    address payable public owner;\n    uint TICKET_PRICE = 100 wei;\n\n    struct Event {\n        string description;\n        string url;\n        uint totalTickets;\n        uint sales;\n        mapping (address => uint) buyers;\n        bool isOpen;\n    }\n\n    Event public myEvent;\n\n    event LogBuyTickets(address buyer, uint amount);\n    event LogGetRefund(address buyer, uint amountRefunded);\n    event LogEndSale(address owner, uint profit);\n\n    modifier onlyOwner {\n        require(msg.sender == owner);\n        _;\n    }\n\n    constructor (string memory _description, string memory _url, uint _totalTickets) public {\n        owner = msg.sender;\n        myEvent.description = _description;\n        myEvent.url = _url;\n        myEvent.totalTickets = _totalTickets;\n        myEvent.sales = 0;\n        myEvent.isOpen = true;\n    }\n\n    function readEvent() public view returns(string memory description, string memory website, uint totalTickets, uint sales, bool isOpen) {\n        description = myEvent.description;\n        website = myEvent.url;\n        totalTickets = myEvent.totalTickets;\n        sales = myEvent.sales;\n        isOpen = myEvent.isOpen;\n    }\n\n    function getBuyerTicketCount(address _buyer) public view returns(uint) {\n        return myEvent.buyers[_buyer];\n    }\n\n    function buyTickets(uint _ticketAmount) public payable {\n        require(myEvent.isOpen);\n        require(myEvent.totalTickets >= _ticketAmount);\n        uint totalPrice = _ticketAmount * TICKET_PRICE;\n        require(msg.value >= totalPrice);\n\n        uint change = msg.value - totalPrice;\n\n        myEvent.totalTickets -= _ticketAmount;\n        myEvent.buyers[msg.sender] += _ticketAmount;\n        myEvent.sales += _ticketAmount;\n\n        msg.sender.transfer(change);\n\n        emit LogBuyTickets(msg.sender, _ticketAmount);\n    }\n\n    function getRefund() public {\n        require(myEvent.buyers[msg.sender] > 0);\n        myEvent.totalTickets += myEvent.buyers[msg.sender];\n        uint amountToRefund = myEvent.buyers[msg.sender] * TICKET_PRICE;\n        myEvent.buyers[msg.sender] = 0;\n        msg.sender.transfer(amountToRefund);\n\n        emit LogGetRefund(msg.sender, amountToRefund);\n    }\n\n    function endSale() public onlyOwner {\n        myEvent.isOpen = false;\n        uint balance = address(this).balance;\n        msg.sender.transfer(balance);\n        emit LogEndSale(msg.sender, balance);\n    }\n}\n",
  "sourcePath": "/Users/tomamajic/Desktop/Toma/Dev/ConsensysAcademy/7_module/EventTicketExercise_Graded/event-ticket-exercise-TomaMajic/contracts/EventTickets.sol",
  "compiler": {
    "name": "solc",
    "version": "0.5.8+commit.23d335f2.Emscripten.clang"
  },
  "schemaVersion": "3.0.16",
  "updatedAt": "2019-11-16T21:32:05.106Z",
  "devdoc": {
    "methods": {}
  },
  "userdoc": {
    "methods": {}
  }
}