{
  "contractName": "EventTicketsV2",
  "abi": [
    {
      "constant": true,
      "inputs": [
        {
          "name": "",
          "type": "uint256"
        }
      ],
      "name": "events",
      "outputs": [
        {
          "name": "description",
          "type": "string"
        },
        {
          "name": "url",
          "type": "string"
        },
        {
          "name": "totalTickets",
          "type": "uint256"
        },
        {
          "name": "sales",
          "type": "uint256"
        },
        {
          "name": "isOpen",
          "type": "bool"
        }
      ],
      "payable": false,
      "stateMutability": "view",
      "type": "function"
    },
    {
      "constant": true,
      "inputs": [],
      "name": "TICKET_PRICE",
      "outputs": [
        {
          "name": "",
          "type": "uint256"
        }
      ],
      "payable": false,
      "stateMutability": "view",
      "type": "function"
    },
    {
      "constant": true,
      "inputs": [],
      "name": "owner",
      "outputs": [
        {
          "name": "",
          "type": "address"
        }
      ],
      "payable": false,
      "stateMutability": "view",
      "type": "function"
    },
    {
      "constant": true,
      "inputs": [],
      "name": "idGenerator",
      "outputs": [
        {
          "name": "",
          "type": "uint256"
        }
      ],
      "payable": false,
      "stateMutability": "view",
      "type": "function"
    },
    {
      "inputs": [],
      "payable": false,
      "stateMutability": "nonpayable",
      "type": "constructor"
    },
    {
      "anonymous": false,
      "inputs": [
        {
          "indexed": false,
          "name": "desc",
          "type": "string"
        },
        {
          "indexed": false,
          "name": "url",
          "type": "string"
        },
        {
          "indexed": false,
          "name": "ticketsAvailable",
          "type": "uint256"
        },
        {
          "indexed": false,
          "name": "eventId",
          "type": "uint256"
        }
      ],
      "name": "LogEventAdded",
      "type": "event"
    },
    {
      "anonymous": false,
      "inputs": [
        {
          "indexed": false,
          "name": "buyer",
          "type": "address"
        },
        {
          "indexed": false,
          "name": "eventId",
          "type": "uint256"
        },
        {
          "indexed": false,
          "name": "numTickets",
          "type": "uint256"
        }
      ],
      "name": "LogBuyTickets",
      "type": "event"
    },
    {
      "anonymous": false,
      "inputs": [
        {
          "indexed": false,
          "name": "accountRefunded",
          "type": "address"
        },
        {
          "indexed": false,
          "name": "eventId",
          "type": "uint256"
        },
        {
          "indexed": false,
          "name": "numTickets",
          "type": "uint256"
        }
      ],
      "name": "LogGetRefund",
      "type": "event"
    },
    {
      "anonymous": false,
      "inputs": [
        {
          "indexed": false,
          "name": "owner",
          "type": "address"
        },
        {
          "indexed": false,
          "name": "balance",
          "type": "uint256"
        },
        {
          "indexed": false,
          "name": "eventId",
          "type": "uint256"
        }
      ],
      "name": "LogEndSale",
      "type": "event"
    },
    {
      "constant": false,
      "inputs": [
        {
          "name": "_description",
          "type": "string"
        },
        {
          "name": "_url",
          "type": "string"
        },
        {
          "name": "_totalTickets",
          "type": "uint256"
        }
      ],
      "name": "addEvent",
      "outputs": [
        {
          "name": "",
          "type": "uint256"
        }
      ],
      "payable": false,
      "stateMutability": "nonpayable",
      "type": "function"
    },
    {
      "constant": true,
      "inputs": [
        {
          "name": "_eventID",
          "type": "uint256"
        }
      ],
      "name": "readEvent",
      "outputs": [
        {
          "name": "description",
          "type": "string"
        },
        {
          "name": "website",
          "type": "string"
        },
        {
          "name": "totalTickets",
          "type": "uint256"
        },
        {
          "name": "sales",
          "type": "uint256"
        },
        {
          "name": "isOpen",
          "type": "bool"
        }
      ],
      "payable": false,
      "stateMutability": "view",
      "type": "function"
    },
    {
      "constant": true,
      "inputs": [
        {
          "name": "_eventID",
          "type": "uint256"
        }
      ],
      "name": "getBuyerNumberTickets",
      "outputs": [
        {
          "name": "",
          "type": "uint256"
        }
      ],
      "payable": false,
      "stateMutability": "view",
      "type": "function"
    },
    {
      "constant": false,
      "inputs": [
        {
          "name": "_eventID",
          "type": "uint256"
        },
        {
          "name": "_ticketAmount",
          "type": "uint256"
        }
      ],
      "name": "buyTickets",
      "outputs": [],
      "payable": true,
      "stateMutability": "payable",
      "type": "function"
    },
    {
      "constant": false,
      "inputs": [
        {
          "name": "_eventID",
          "type": "uint256"
        }
      ],
      "name": "getRefund",
      "outputs": [],
      "payable": false,
      "stateMutability": "nonpayable",
      "type": "function"
    },
    {
      "constant": false,
      "inputs": [
        {
          "name": "_eventID",
          "type": "uint256"
        }
      ],
      "name": "endSale",
      "outputs": [],
      "payable": false,
      "stateMutability": "nonpayable",
      "type": "function"
    }
  ],
  "bytecode": "0x608060405234801561001057600080fd5b50336000806101000a81548173ffffffffffffffffffffffffffffffffffffffff021916908373ffffffffffffffffffffffffffffffffffffffff160217905550611258806100606000396000f3fe6080604052600436106100915760003560e01c80638627df46116100595780638627df46146104015780638da5cb5b14610439578063d2f0be9914610490578063e1ba30a9146104cb578063e7bd92b91461060457610091565b806304d1a846146100965780630b791430146100d15780631a95f15f1461020a5780633ddedd38146102355780634da19f2014610284575b600080fd5b3480156100a257600080fd5b506100cf600480360360208110156100b957600080fd5b810190808035906020019092919050505061062f565b005b3480156100dd57600080fd5b5061010a600480360360208110156100f457600080fd5b81019080803590602001909291905050506107a2565b60405180806020018060200186815260200185815260200184151515158152602001838103835288818151815260200191508051906020019080838360005b83811015610164578082015181840152602081019050610149565b50505050905090810190601f1680156101915780820380516001836020036101000a031916815260200191505b50838103825287818151815260200191508051906020019080838360005b838110156101ca5780820151818401526020810190506101af565b50505050905090810190601f1680156101f75780820380516001836020036101000a031916815260200191505b5097505050505050505060405180910390f35b34801561021657600080fd5b5061021f610915565b6040518082815260200191505060405180910390f35b34801561024157600080fd5b5061026e6004803603602081101561025857600080fd5b810190808035906020019092919050505061091a565b6040518082815260200191505060405180910390f35b34801561029057600080fd5b506103eb600480360360608110156102a757600080fd5b81019080803590602001906401000000008111156102c457600080fd5b8201836020820111156102d657600080fd5b803590602001918460018302840111640100000000831117156102f857600080fd5b91908080601f016020809104026020016040519081016040528093929190818152602001838380828437600081840152601f19601f8201169050808301925050505050505091929192908035906020019064010000000081111561035b57600080fd5b82018360208201111561036d57600080fd5b8035906020019184600183028401116401000000008311171561038f57600080fd5b91908080601f016020809104026020016040519081016040528093929190818152602001838380828437600081840152601f19601f8201169050808301925050505050505091929192908035906020019092919050505061097c565b6040518082815260200191505060405180910390f35b6104376004803603604081101561041757600080fd5b810190808035906020019092919080359060200190929190505050610bcf565b005b34801561044557600080fd5b5061044e610d62565b604051808273ffffffffffffffffffffffffffffffffffffffff1673ffffffffffffffffffffffffffffffffffffffff16815260200191505060405180910390f35b34801561049c57600080fd5b506104c9600480360360208110156104b357600080fd5b8101908080359060200190929190505050610d87565b005b3480156104d757600080fd5b50610504600480360360208110156104ee57600080fd5b8101908080359060200190929190505050610f80565b60405180806020018060200186815260200185815260200184151515158152602001838103835288818151815260200191508051906020019080838360005b8381101561055e578082015181840152602081019050610543565b50505050905090810190601f16801561058b5780820380516001836020036101000a031916815260200191505b50838103825287818151815260200191508051906020019080838360005b838110156105c45780820151818401526020810190506105a9565b50505050905090810190601f1680156105f15780820380516001836020036101000a031916815260200191505b5097505050505050505060405180910390f35b34801561061057600080fd5b50610619611150565b6040518082815260200191505060405180910390f35b6000809054906101000a900473ffffffffffffffffffffffffffffffffffffffff1673ffffffffffffffffffffffffffffffffffffffff163373ffffffffffffffffffffffffffffffffffffffff161461068857600080fd5b60006002600083815260200190815260200160002090508060050160009054906101000a900460ff166106ba57600080fd5b60008160050160006101000a81548160ff0219169083151502179055506000606482600301540290503373ffffffffffffffffffffffffffffffffffffffff166108fc829081150290604051600060405180830381858888f19350505050158015610729573d6000803e3d6000fd5b507f6497e6dff32a753fe6b3a2b3430e5f86d65c6e35cf360d52eb3494711d7d7a1c338285604051808473ffffffffffffffffffffffffffffffffffffffff1673ffffffffffffffffffffffffffffffffffffffff168152602001838152602001828152602001935050505060405180910390a1505050565b6002602052806000526040600020600091509050806000018054600181600116156101000203166002900480601f01602080910402602001604051908101604052809291908181526020018280546001816001161561010002031660029004801561084e5780601f106108235761010080835404028352916020019161084e565b820191906000526020600020905b81548152906001019060200180831161083157829003601f168201915b505050505090806001018054600181600116156101000203166002900480601f0160208091040260200160405190810160405280929190818152602001828054600181600116156101000203166002900480156108ec5780601f106108c1576101008083540402835291602001916108ec565b820191906000526020600020905b8154815290600101906020018083116108cf57829003601f168201915b5050505050908060020154908060030154908060050160009054906101000a900460ff16905085565b606481565b6000806002600084815260200190815260200160002090508060040160003373ffffffffffffffffffffffffffffffffffffffff1673ffffffffffffffffffffffffffffffffffffffff16815260200190815260200160002054915050919050565b60008060009054906101000a900473ffffffffffffffffffffffffffffffffffffffff1673ffffffffffffffffffffffffffffffffffffffff163373ffffffffffffffffffffffffffffffffffffffff16146109d757600080fd5b6109df611156565b6040518060a00160405280868152602001858152602001848152602001600081526020016001151581525090506000600154905081600260008381526020019081526020016000206000820151816000019080519060200190610a43929190611187565b506020820151816001019080519060200190610a60929190611187565b50604082015181600201556060820151816003015560808201518160050160006101000a81548160ff0219169083151502179055509050506001600081548092919060010191905055507f7d1d82c13762b51876068c852c5d404d0fa38fb615c14eebefafb60bdb4bd1b286868684604051808060200180602001858152602001848152602001838103835287818151815260200191508051906020019080838360005b83811015610b1f578082015181840152602081019050610b04565b50505050905090810190601f168015610b4c5780820380516001836020036101000a031916815260200191505b50838103825286818151815260200191508051906020019080838360005b83811015610b85578082015181840152602081019050610b6a565b50505050905090810190601f168015610bb25780820380516001836020036101000a031916815260200191505b50965050505050505060405180910390a180925050509392505050565b60006002600084815260200190815260200160002090508060050160009054906101000a900460ff16610c0157600080fd5b8181600201541015610c1257600080fd5b600060648302905080341015610c2757600080fd5b60008134039050838360020160008282540392505081905550838360040160003373ffffffffffffffffffffffffffffffffffffffff1673ffffffffffffffffffffffffffffffffffffffff168152602001908152602001600020600082825401925050819055508383600301600082825401925050819055503373ffffffffffffffffffffffffffffffffffffffff166108fc829081150290604051600060405180830381858888f19350505050158015610ce7573d6000803e3d6000fd5b507f15827fa78fedf80f93aa72ce61e705b1362cab60ae596b1bb327076fc3856c24338686604051808473ffffffffffffffffffffffffffffffffffffffff1673ffffffffffffffffffffffffffffffffffffffff168152602001838152602001828152602001935050505060405180910390a15050505050565b6000809054906101000a900473ffffffffffffffffffffffffffffffffffffffff1681565b60006002600083815260200190815260200160002090508060050160009054906101000a900460ff16610db957600080fd5b60008160040160003373ffffffffffffffffffffffffffffffffffffffff1673ffffffffffffffffffffffffffffffffffffffff1681526020019081526020016000205411610e0757600080fd5b60008160040160003373ffffffffffffffffffffffffffffffffffffffff1673ffffffffffffffffffffffffffffffffffffffff168152602001908152602001600020549050808260020160008282540192505081905550600060648202905060008360040160003373ffffffffffffffffffffffffffffffffffffffff1673ffffffffffffffffffffffffffffffffffffffff168152602001908152602001600020819055508183600301600082825403925050819055503373ffffffffffffffffffffffffffffffffffffffff166108fc829081150290604051600060405180830381858888f19350505050158015610f06573d6000803e3d6000fd5b507f73ebb2050cb3ee6869929e7a26925e92e201f14902e155037f1f90af931b3233338584604051808473ffffffffffffffffffffffffffffffffffffffff1673ffffffffffffffffffffffffffffffffffffffff168152602001838152602001828152602001935050505060405180910390a150505050565b6060806000806000610f90611156565b600260008881526020019081526020016000206040518060a0016040529081600082018054600181600116156101000203166002900480601f0160208091040260200160405190810160405280929190818152602001828054600181600116156101000203166002900480156110475780601f1061101c57610100808354040283529160200191611047565b820191906000526020600020905b81548152906001019060200180831161102a57829003601f168201915b50505050508152602001600182018054600181600116156101000203166002900480601f0160208091040260200160405190810160405280929190818152602001828054600181600116156101000203166002900480156110e95780601f106110be576101008083540402835291602001916110e9565b820191906000526020600020905b8154815290600101906020018083116110cc57829003601f168201915b5050505050815260200160028201548152602001600382015481526020016005820160009054906101000a900460ff161515151581525050905080600001519550806020015194508060400151935080606001519250806080015191505091939590929450565b60015481565b6040518060a00160405280606081526020016060815260200160008152602001600081526020016000151581525090565b828054600181600116156101000203166002900490600052602060002090601f016020900481019282601f106111c857805160ff19168380011785556111f6565b828001600101855582156111f6579182015b828111156111f55782518255916020019190600101906111da565b5b5090506112039190611207565b5090565b61122991905b8082111561122557600081600090555060010161120d565b5090565b9056fea165627a7a7230582054044aee06c0fe9887b4017d50bc5e9a29832737c156418d43112b0a0a9a9c170029",
  "source": "pragma solidity ^0.5.0;\n\ncontract EventTicketsV2 {\n\n    address payable public owner;\n    uint constant public TICKET_PRICE = 100 wei;\n    uint public idGenerator;\n\n    struct Event {\n        string description;\n        string url;\n        uint totalTickets;\n        uint sales;\n        mapping (address => uint) buyers;\n        bool isOpen;\n    }\n\n    mapping (uint => Event) public events;\n\n    event LogEventAdded(string desc, string url, uint ticketsAvailable, uint eventId);\n    event LogBuyTickets(address buyer, uint eventId, uint numTickets);\n    event LogGetRefund(address accountRefunded, uint eventId, uint numTickets);\n    event LogEndSale(address owner, uint balance, uint eventId);\n\n    modifier onlyOwner {\n        require(msg.sender == owner);\n        _;\n    }\n\n    constructor () public {\n        owner = msg.sender;\n    }\n\n    function addEvent(string memory _description, string memory _url, uint _totalTickets) public onlyOwner returns(uint) {\n        Event memory newEvent = Event({\n            description: _description,\n            url: _url,\n            totalTickets: _totalTickets,\n            sales: 0,\n            isOpen: true\n        });\n\n        uint eventID = idGenerator;\n        events[eventID] = newEvent;\n        idGenerator++;\n\n        emit LogEventAdded(_description, _url, _totalTickets, eventID);\n        return eventID;\n    }\n\n    function readEvent(uint _eventID) public view returns(string memory description, string memory website, uint totalTickets, uint sales, bool isOpen) {\n        Event memory myEvent = events[_eventID];\n        description = myEvent.description;\n        website = myEvent.url;\n        totalTickets = myEvent.totalTickets;\n        sales = myEvent.sales;\n        isOpen = myEvent.isOpen;\n    }\n\n    function getBuyerNumberTickets(uint _eventID) public view returns(uint) {\n        Event storage myEvent = events[_eventID];\n        return myEvent.buyers[msg.sender];\n    }\n\n    function buyTickets(uint _eventID, uint _ticketAmount) public payable {\n        Event storage myEvent = events[_eventID];\n        require(myEvent.isOpen);\n        require(myEvent.totalTickets >= _ticketAmount);\n        uint totalPrice = _ticketAmount * TICKET_PRICE;\n        require(msg.value >= totalPrice);\n\n        uint change = msg.value - totalPrice;\n        myEvent.totalTickets -= _ticketAmount;\n        myEvent.buyers[msg.sender] += _ticketAmount;\n        myEvent.sales += _ticketAmount;\n\n        msg.sender.transfer(change);\n\n        emit LogBuyTickets(msg.sender, _eventID, _ticketAmount);\n    }\n\n    function getRefund(uint _eventID) public {\n        Event storage myEvent = events[_eventID];\n        require(myEvent.isOpen);\n        require(myEvent.buyers[msg.sender] > 0);\n\n        uint ticketAmount = myEvent.buyers[msg.sender];\n        myEvent.totalTickets += ticketAmount;\n        uint amountToRefund = ticketAmount * TICKET_PRICE;\n        myEvent.buyers[msg.sender] = 0;\n        myEvent.sales -= ticketAmount;\n\n        msg.sender.transfer(amountToRefund);\n\n        emit LogGetRefund(msg.sender, _eventID, ticketAmount);\n    }\n\n    function endSale(uint _eventID) public onlyOwner {\n        Event storage myEvent = events[_eventID];\n        require(myEvent.isOpen);\n        myEvent.isOpen = false;\n        uint balance = myEvent.sales * TICKET_PRICE;\n        msg.sender.transfer(balance);\n\n        emit LogEndSale(msg.sender, balance, _eventID);\n    }\n}\n",
  "sourcePath": "/Users/tomamajic/Desktop/Toma/Dev/ConsensysAcademy/7_module/EventTicketExercise_Graded/event-ticket-exercise-TomaMajic/contracts/EventTicketsV2.sol",
  "compiler": {
    "name": "solc",
    "version": "0.5.8+commit.23d335f2.Emscripten.clang"
  },
  "schemaVersion": "3.0.16",
  "updatedAt": "2019-11-20T23:25:48.955Z",
  "devdoc": {
    "methods": {}
  },
  "userdoc": {
    "methods": {}
  }
}